:020000040800F2
:10000000FFFF01207D270008F10D0008F50D000815
:10001000F90D0008FD0D0008010E000800000000A9
:10002000000000000000000000000000050E0008B5
:10003000090E0008000000000D0E0008110E000857
:10004000C5270008C5270008C5270008C5270008E0
:10005000C5270008C5270008C5270008C5270008D0
:10006000C5270008C5270008C5270008C5270008C0
:10007000C5270008C5270008C5270008C5270008B0
:10008000C5270008C5270008C5270008C5270008A0
:10009000C5270008C5270008C5270008C527000890
:1000A000C5270008C5270008C5270008C527000880
:1000B000C5270008C5270008C5270008C527000870
:1000C000C5270008C5270008C5270008C527000860
:1000D000C5270008C5270008C5270008C527000850
:1000E000C5270008C5270008C5270008C527000840
:1000F000C5270008C5270008C5270008C527000830
:10010000C5270008C5270008C5270008C52700081F
:10011000C5270008C5270008C5270008C52700080F
:10012000C5270008C5270008C5270008C5270008FF
:10013000C5270008C5270008C5270008C5270008EF
:10014000C5270008C5270008C5270008C5270008DF
:10015000C5270008C5270008C5270008C5270008CF
:10016000C5270008C5270008C5270008C5270008BF
:10017000C5270008C5270008C5270008C5270008AF
:08018000C5270008C52700088F
:1001A0000348044B834202D0034B03B11847704706
:1001B000840000208400002000000000054806495B
:1001C0000B1AD90F01EBA301491002D0034B03B165
:1001D00018477047840000208400002000000000C1
:1001E00010B5064C237843B9FFF7DAFF044B13B17F
:1001F0000448AFF300800123237010BD8400002069
:1002000000000000CC31000808B5044B1BB10449C4
:100210000448AFF30080BDE80840CFE700000000CD
:1002200088000020CC310008704700BF704700BF35
:10023000284A294B116841F005011160116841F409
:10024000807111601A6842F001021A601A68900702
:10025000FCD55A685A6059681F4A21F03F0159601D
:10026000596841F010015960596821F4FF4121F0AB
:1002700040015960596841F480615960596841F4FE
:1002800080515960596841F480415960596821F49E
:1002900040315960996821F4E0519960996841F4BE
:1002A000A0519960996821F460419960996841F47E
:1002B00000419960196841F08071196013689901D3
:1002C000FCD59368044943F0020393608B681B07D5
:1002D000FCD57047003C02400038024070B4016019
:1002E00006999DF810609DF8145042600372002238
:1002F000039B46728572C0E9031270BC436170476C
:1003000003689888C0B2704703690168C218013356
:10031000B3F5806F89881176A8BF00230361704709
:1003200000F1170300F21741002203F8012F8B425E
:10033000FBD1436902611A6822F001021A601A684F
:1003400042F001021A607047026813881B06FCD550
:1003500089B29180704700BF10B40C784CB102682C
:1003600013881B06FCD5A4B2948011F8014F002C11
:10037000F6D110BC704700BF10B40C78026844B1CD
:1003800013881806FCD5A4B2948011F8014F002CF4
:10039000F6D113881B06FCD50A2310BC9380704746
:1003A0000268017A938A9BB243F0400310B49382AF
:1003B00000293AD121490B6B43F400130B63204B06
:1003C0009A420CD01F4B9A4209D003F580639A429F
:1003D000436909D1196841F00061196004E043697B
:1003E000196841F000611960196821F4C041196071
:1003F000196821F4C0511960196841F480611960CD
:10040000196804324FF48064183041F48071196027
:100410005C609A60D8601A6810BC42F010021A60E2
:100420001A6842F001021A6070470129C7D10349D6
:100430000B6B43F480030B63C1E700BF003802403D
:100440000010014000440040B24B01689942F0B4F2
:1004500000F04881B04B994200F0E480A3F550438E
:10046000994240F07D81AD4A136C43F4003313642C
:100470004368AB4A934200F0DF80AA4A934200F0FF
:100480005F8102F58062934240F03281A34C226B7F
:1004900042F004022263A44A934240F031819F4C0F
:1004A000226B42F040022263847A1D6801226400BC
:1004B00002FA04F425EA04041C60847A1E6802250A
:1004C00015FB042402FA04F434431C60847A9E6809
:1004D000944002FA04F434439C60847A9E6815FBCD
:1004E000042402FA04F434439C60847ADE68944065
:1004F00002FA04F43443DC60847ADE6815FB0424D9
:1005000002FA04F426EA0404DC60847A072C00F280
:10051000C9801E6AAC4002FA04F434431C62867A35
:100520001F6A042414FB062602FA06F63E431E62E6
:10053000867A1F6A14FB065502FA05F53D431D62D3
:10054000877A1D6A032614FB0764A24025EA02028B
:100550001A62447A1D680122640002FA04F425EA52
:1005600004041C60447A1E68022515FB042402FA68
:1005700004F434431C60447ADE68944002FA04F4C4
:100580003443DC60447ADE6815FB042402FA04F488
:1005900026EA0404DC60447A072C63D81E6AAC4067
:1005A00002FA04F434431C62467A1F6A042414FBE2
:1005B000062602FA06F63E431E62467A1F6A14FBBE
:1005C000065502FA05F53D431D62477A1D6A03266A
:1005D00014FB0764A24025EA02021A624D4B9942BD
:1005E00039D003F58063994235D0C2684F4BB3FBD5
:1005F000F2F39BB20B818B899BB243F008038B8192
:100600008B899BB243F004038B818B899BB243F4AB
:1006100000538B818B899BB243F02003F0BC8B810C
:10062000FFF7BEBE3D4A536C43F02003536443685A
:100630003B4A93427FF421AF384C226B42F00102D7
:1006400022633B4A93427FF426AF344C226B42F044
:100650002002226328E7C268364BB3FBF2F39BB259
:100660000B81C8E7083C5D6AA40002FA04F42C433D
:100670005C62447A5D6AA4001F3C02FA04F42C43D5
:100680005C62447A5D6AA4001E3C02FA04F42C43C6
:100690005C62447A5D6AA4001D3CA24025EA020225
:1006A0005A629BE7083C5D6AA40002FA04F42C43FA
:1006B0005C62847A5D6AA4001F3C02FA04F42C4355
:1006C0005C62847A5D6AA4001E3C02FA04F42C4346
:1006D0005C62847A5D6AA4001D3CA24025EA0202A5
:1006E0005A6236E70D4A536C43F010035364BFE679
:1006F000114A93423ED1094C226B42F00802226318
:100700000E4A934222D1054C226B42F080022263B2
:10071000CAE600BF0010014000140140003802404A
:1007200000000240000402400018024080DE800207
:100730000014024000BD0105000C0240001C0240F4
:10074000114C226B42F0020222637AE70F4A934275
:100750007FF4AAAE0C4C226B42F480722263A3E6B3
:100760000B4B99427FF484AE074A136C43F4802309
:1007700013647DE6074A93427FF463AF024C226B19
:1007800042F0100222638FE600380240002002404F
:10079000004800400010024043691A6822F001023C
:1007A0001A601A6842F001021A607047704700BF71
:1007B00030B585B0089C9DF82450009401959DF8B3
:1007C00028400B9D029403950446FFF787FD002304
:1007D00084F818342046FFF737FE204605B030BDB8
:1007E0002046FFF7E3FF01F0F3FF00BF6C4A4369C7
:1007F000934210B400F0CE8002F58062934254D050
:10080000684A934272D0684A93422FD1674A11686E
:100810000C0500F19F80664A93420FD1634A11682C
:100820000C0100F18780634A93420ED1624A5368FB
:100830009C0211D490F8180410BC70475F4A934290
:100840001CD15D4A516889067CD45D4A93421CD113
:10085000564A53689902EDD5D16810BC012341F482
:10086000001180F818341846D1607047554A9342F9
:1008700026D1514A1168890200F18480524A93427C
:1008800025D14A4A51688C0674D4504A9342D1D13A
:10089000494A53681B01CDD5D168012341F000615D
:1008A00080F818341846D160C6E7404A11688C06B3
:1008B00006D59168012441F0200180F81844916028
:1008C000434A93421FD1394A11688C024AD4414AA3
:1008D00093421FD1384B5A681105ABD5DA68012114
:1008E00042F4006280F81814DA60A3E752F8281C7A
:1008F0000905A2F1280206D59168012441F400619E
:1009000080F818449160344A934284D12A4A11688D
:10091000090107D4314A934285D1244B5A68120504
:1009200088D5DBE79168012441F0006180F8184424
:100930009160EFE79168012441F0006180F818446C
:10094000916070E7D168012441F0200180F81844DB
:10095000D1607AE79168012441F4006180F818447D
:10096000916058E79168012441F4001180F818441F
:100970009160ACE7D168012441F0200180F818446F
:10098000D16082E79168012441F4001180F8184495
:10099000916073E7084A1168890691D589E700BF1D
:1009A0001060024028600240286402400064024057
:1009B00058640240A0600240006002407060024043
:1009C000A06402404060024070640240B86002408F
:1009D00040640240886002405860024088640240DF
:1009E000002380F818347047F0B4002482B000254A
:1009F000CDE90045DDE900679F4208BF96420ED26F
:100A000014461D46DDE90023501C43F10001CDE9E9
:100A10000001DDE90023AB4208BFA242F2D302B0DD
:100A2000F0BC70472DE9F04FDFF85481514B8446FC
:100A30008E46914698E80700ADF25C4D0DF13C08FA
:100A4000A8E80300170C28F8022B93E807000CAB6A
:100A500003C3494988F800700E681A800DF14808F0
:100A60007146320C1A2340466746CDF804C08DF813
:100A70001620ADF814608DF8133001F08BFBA0EB5D
:100A800008031E4632460DF139034146013218462D
:100A900001F05CF9034682199DF816C0BDF81400F8
:100AA0009853494682F802C016A801F017FD0FA915
:100AB0003846FFF751FC00220023CDE90623DDE98B
:100AC0000623DFF8B8804FF00009994508BF90452C
:100AD0000CD3DDE90623561C43F10007CDE9066778
:100AE000DDE90623994508BF9045F2D201980CA98B
:100AF000FFF732FC00220023CDE90823DDE90823BB
:100B00001E480021994208BF90420CD3DDE908231A
:100B1000541C43F10005CDE90845DDE9082399425D
:100B200008BF9042F2D2019816A9FFF715FC0022E7
:100B30000023CDE90A23DDE90A2310480021994268
:100B400008BF90420DD3DDE90A2312F1010A43F1F7
:100B5000000BCDE90AABDDE90A23994208BF9042B8
:100B6000F1D201980DF11301FFF7F6FB0DF25C4D88
:100B7000BDE8F08FE8310008F43100089F860100DD
:100B8000F83100082DE9F04F3B4A3C4BDFF8F4E028
:100B9000824607CA93B00DF1180B8BE807000FCB04
:100BA0000DF1240CACE807008CF80030BEE80F0013
:100BB0000DF1340CACE80F00DEF80030CCF800305A
:100BC00059465046FFF7C8FB00220023CDE9002319
:100BD000DDE900232A480021994208BF90420DD345
:100BE000DDE9002312F1010843F10009CDE9008994
:100BF000DDE90023994208BF9042F1D209A950468D
:100C0000FFF7AAFB00220023CDE90223DDE902233E
:100C10001B480021994208BF90420CD3DDE9022312
:100C2000561C43F10007CDE90267DDE90223994232
:100C300008BF9042F2D20DA95046FFF78DFB00226B
:100C40000023CDE90423DDE904230D480021994266
:100C500008BF90420CD3DDE90423541C43F1000586
:100C6000CDE90445DDE90423994208BF9042F2D260
:100C700013B0BDE8F08F00BF043200081032000846
:100C80009F86010020320008704700BF10B504465F
:100C9000FFF78CFD204610BD344B35481A68002103
:100CA00042F001021A6099601A6822F0847222F4FC
:100CB00080321A6058601A6882B022F480221A606A
:100CC000D960009101911A6842F480321A6003E001
:100CD000009AB2F5A04F09D01A6802F400320192CE
:100CE000009A01320092019A002AF1D01F4B1B6832
:100CF00013F4003318BF01230193019B012B05D08E
:100D00001C4B4FF000629A6002B07047174B1A49B3
:100D10001A6C1A4842F080521A640A6842F440423F
:100D20000A609A689A609A6842F400429A609A68E7
:100D300042F4A0529A6058601A6842F080721A60B9
:100D40001A689201FCD50E4A084940F205701060FD
:100D50009A6822F003029A609A6842F002029A604E
:100D60008B6803F00C03082BFAD1C9E70038024066
:100D70001030002400ED00E00070004008544007EF
:100D8000003C0240154A936803F00C03042B0BD07F
:100D9000082B0BD0124B114A12499268C2F303126E
:100DA0008A5CD3400B6170470F4BF4E75068516881
:100DB00052684302C2F388124CBF0C4B084B01F03F
:100DC0003F01B3FBF1F303FB02F3044A5268C2F3A1
:100DD000014201325200B3FBF2F3DCE7003802407B
:100DE0000024F4000400002000127A0040787D0105
:100DF000704700BFFEE700BFFEE700BFFEE700BF91
:100E0000FEE700BF704700BF704700BF704700BFDC
:100E1000704700BF03685A004CBF43F0004323F003
:100E200000431844704700BF2DE9F84329B34F1E13
:100E3000044615463E464FF0000808EB060101EB5C
:100E4000D171491004EBC1094846FFF7E3FF03469F
:100E5000C80008308F42204409D0AB4209D8FFF7C0
:100E6000D9FF0138A8420AD201F10108E5E7AB42F7
:100E700005D9884501D04E1EDFE74FF000094846EE
:100E8000BDE8F883012807D0022807D0044B0028CA
:100E90000CBF184600207047024870470248704750
:100EA000491500084D1500085115000830B5234BB1
:100EB00083B004468D1E3BB301A92846AFF30080E2
:100EC000E8B101992A46FFF7AFFF0146B8B1FFF735
:100ED000A1FF4B68A064012B2BD0002B01F1040073
:100EE00023DBFFF797FF0023C4E913030368002BFC
:100EF00010DBFFF78FFF2061002003B030BD00231F
:100F00000920236103B030BD0D490E48091AC910EC
:100F10000191D7E7C3F30360FFF7B4FF0028206116
:100F200014BF0020092003B030BD0123C4E913031E
:100F3000DCE7002323610520DFE700BF000000009D
:100F400088340008983300080368DA0710B50446AF
:100F500006D49B0700F1480009D500F04BFC23683C
:100F6000590709D51A070ED5DB0613D510BD00F0B9
:100F700039FC23685907F5D404F1D00000F042FC95
:100F800023681A07F0D404F5A87000F043FC236826
:100F9000DB06EBD404F5E870BDE8104000F07EBC41
:100FA0000346006800B11844704700BF092070472D
:100FB000704700BF70B504460E46316C2046FFF7FF
:100FC00075FF054688B9336C636132462369214653
:100FD000012098470828F0D0072806D12846316C10
:100FE000FFF7E6FF301D00F0F1FB00F065FE00BFEB
:100FF0002DE9F0470D1D064614460FCDADF5727D67
:101000000DF10C0CACE80F000FCDACE80F000FCDCC
:10101000ACE80F0095E80F0002ADF768D6F818802D
:101020008CE80F0000232B6021E02B6C73614FF4E0
:10103000F07229467AA800F089FE33697AAA31460F
:1010400050469847889BCDE9005821466B648146FD
:10105000334632460120B8470446E8B94FF4F072EF
:101060007AA9284600F072FEB9F1080F1BD1296C4D
:101070003046FFF71BFF09345FFA84FA81460028E7
:10108000D3D0AB6B4AF01001CDE9005832466B6407
:1010900001203346B84708B14FF0090948460DF51D
:1010A000727DBDE8F087B9F1070FF5D12046296CB4
:1010B000FFF77EFF03A800F089FB00BF406C70477C
:1010C000F0B5CB6B0B640E1D0F4605460FCEF9B085
:1010D00001AC0FC40FCE0FC40FCE0FC496E80F00A3
:1010E0004FF0FF3684E80F00009606E02B696A4651
:1010F000294698470828044608D110992846FFF742
:10110000D5FE0028F2D0092079B0F0BD6846FFF77F
:101110001BFF062CF7D139462846FFF74BFF00BFCF
:1011200030B4DD6BC160826119461D64002230BCA1
:101130005EE700BF70B5C66843690B64AEB903696A
:101140000A4604460D46014602209847072805D066
:1011500008280FD129462046FFF72CFF3046296C7E
:10116000FFF726FF281D00F031FB0122FFF740FFAB
:1011700000F0A2FD00F0A0FDC2681AB1CA6B0A64BB
:10118000002235E79CE700BF704700BF8368014637
:101190000BB1012018477047012912D009D873B943
:1011A0000F2A0CD800EB820218465368009A13608D
:1011B00070470339012994BF0120022070470220A3
:1011C00070470846704700BF10B584B0002303ACD9
:1011D0000A4600941946FFF7DFFF039804B010BDDC
:1011E000012912D009D873B90F2A0CD800EB82005C
:1011F000009A12684260184670470339012994BF6B
:10120000012002207047022070470846704700BF47
:1012100010B584B0002303AC039200940A4619462B
:10122000FFF7DEFF04B010BDF0B5D36B1364151DDE
:101230008C4606460FCDADF50F7D17AC0FC40FCD14
:101240000FC40FCD0FC495E80F004FF0FF3784E8AF
:101250000F006546169710E0FFF7DAFF294616A83B
:10126000B047034616AA6946082083B9049B9847ED
:10127000052804460CD0092809D026996846FFF7AE
:1012800015FE03466A460C2116A8002BE4D009245B
:1012900016A8FFF759FE20460DF50F7DF0BD00BFE3
:1012A0002DE9F04FCC6C89B00D4654F8041B069420
:1012B000174600F003081E46002B79D00B0CDAB25B
:1012C00009048DF81D30022304EB820405918DF88A
:1012D0001C302B6DB8F1020F08BFAC6B13F001038B
:1012E0000CD0384605A900F073FB18B9082009B0E6
:1012F000BDE8F08F092009B0BDE8F08FD4F800A058
:10130000BAF1000FEDD0019300F008030293022E12
:101310004AD0B4F800A0B4F802900434AA6C29F0C2
:10132000010B0F2138469344FFF74EFF834539D810
:101330002AF001025A44824294BF002001204FEA61
:10134000490303F002030AF0010A43EA0A03012BEE
:1013500049D0022B32D0002BCCD1B8F1000F02D0F3
:10136000002840F0CD800434D4F800A0BAF1000F7A
:10137000CDD105A9384600F02BFB0028BAD1019B3E
:10138000002BB3D00F213846FFF71EFF0E21024677
:101390003846FFF73DFF38466A4A0F21FFF738FF0E
:1013A0000720A8E70020CAE7D4F804900834B5E77E
:1013B000090203230591ADF81C308AE7236823F066
:1013C000004BB8F1000F45D128B1029A002A5CD039
:1013D000BBF1000F74D0002B00DA04340BF1010BC9
:1013E00004EB8B04C0E7B8F1000F19D1B0B1D4E918
:1013F0000023991C4FEAD2723FF47CAF05F15801EB
:101400000133049100F09080201DFFF7C9FD04AB6B
:101410000146284601F000FA00285BD10834A3E712
:101420000D213846D5F82090FFF7CEFE8145F5D145
:10143000AB6A9C42F2D12046FFF7ECFC0F2102463A
:101440003846FFF7E5FE38462A460021FFF7E0FE62
:10145000072050E70D213846D5F82090FFF7B4FE5D
:10146000814501D02368B6E7AB6A9C42FAD10422D9
:101470000021C5E90B12A318C5F828B06B632368D7
:101480008B4259DB01230193A8E705F15803CDF8FE
:101490000C8004F1040AB04691461E460DE0049605
:1014A000FFF77EFD04AB01460022284601F0B4F9A7
:1014B00009F101090AF1040AE8B9D9455046EED10B
:1014C00038460D21FFF780FE049B2862C5E90934E8
:1014D000062010E781460D213846FFF775FEB9F169
:1014E000020F286225D12B46049A43F82C2F6B62F9
:1014F000AC620620FFE646462368DDF80C806AE70A
:101500002046FFF787FC04340246AC6328461446A5
:1015100001F0E0F900283FF4EDAE384622460F21F5
:10152000FFF776FE0720E6E638460D21FFF74CFE72
:101530002862049B6B62DBE70BF1010004EB800087
:101540007AE700BF093100080023A9E60123A7E6D6
:101550000223A5E62DE9F0430646C3B015461C4616
:10156000042900F2B980DFE801F09A53B72903009B
:10157000002C40F0B180102A00F2AE800368D8063B
:1015800000F1F38020AF384600F092F9B06B0023F1
:10159000012404FA03F22A42014604D051F8042B34
:1015A00047F8232008460133042BF2D1B0633846B4
:1015B00000F074F9002043B0BDE8F083032C40F044
:1015C0008B8094B204EB1243102B4FEA124500F2C9
:1015D000838003681F0700F1D08020AF384600F0F9
:1015E0003BF907EBC501B56B54B10B46E81A01EBAB
:1015F000C401E4001A5843F8042B8B42FAD1254465
:101600003846B56300F006F9002043B0BDE8F0832A
:10161000012C4FEA124895B25AD0052C5CD108EB48
:101620000509B9F1200F57D8B8F10F0F77D9A9469E
:10163000002D40F08880B36B6DB320AF4FF00009F0
:1016400007EBC807043F03EBC50553F8041B47F835
:10165000041FAB42F9D1B9F1000F0FD06F464146DC
:10166000102938BF102107EBC101843903EBC905EC
:1016700053F8040B41F8040FAB42F9D1012C00F0F0
:101680008480B8F10F0FB56345D9B9F1000F02D0CE
:10169000684600F0B7F8002043B0BDE8F083DCB93D
:1016A000876B2346012094B206F1040C00FA03F282
:1016B0002242394604D051F8042B4CF823200F461F
:1016C0000133102BF2D115F40050E4D1B76304E0DC
:1016D00008EB0503102B03D9022043B0BDE8F083CB
:1016E000B8F10F0FF8D83368DA0706D5304623F083
:1016F000030340F8483B00F079F820AF384600F08B
:1017000075F8B36B002D99D11D460435B563384685
:1017100000F068F8BFE720A800F06CF8B5E7B9F171
:10172000100F40D9A9F110093368D90708D523F063
:101730000103304643F0020340F8483B00F05EF8F6
:10174000B9F1000F32D033685A0720D4B8F10F0F27
:1017500025D96F463846C8F1100500F057F8002D1E
:10176000B36B7FF77CAF20AF6AE723F010033360E1
:1017700006F5E87000F09CF804E723F00803036026
:1017800000F5A87000F068F827E720AFBDE7304605
:1017900023F0040340F8D03B00F038F8D6E720A847
:1017A00000F02CF8D5E74FF00009BDE7B8F10F0FB6
:1017B0003FF641AF20AF384600F020F8B36B002D64
:1017C0007FF43CAF384600F015F864E700F13401CF
:1017D00091E838009C46A6464CF8045D90E8FF0F5F
:1017E000E54600BD90EC210B704700BF80EC210B5B
:1017F000704700BF90EC200B704700BF80EC200BBF
:10180000704700BFD0EC200B704700BFC0EC200B2E
:10181000704700BFF0EC0201F0EC0211F0EC022185
:10182000F0EC0231F0EC0241F0EC0251F0EC02611C
:10183000F0EC0271F0EC0281F0EC0291F0EC02A10C
:10184000F0EC02B1F0EC02C1F0EC02D1F0EC02E1FC
:10185000F0EC02F1704700BFE0EC0201E0EC021195
:10186000E0EC0221E0EC0231E0EC0241E0EC02515C
:10187000E0EC0261E0EC0271E0EC0281E0EC02914C
:10188000E0EC02A1E0EC02B1E0EC02C1E0EC02D13C
:10189000E0EC02E1E0EC02F1704700BFB0FC018136
:1018A000B0FC0191B0FC01A1B0FC01B1704700BFD8
:1018B000A0FC0181A0FC0191A0FC01A1A0FC01B150
:1018C000704700BFEC4600B52DE900502DE9FF1F21
:1018D0004FF000032DE90C0001A9FFF7F1FBDDF843
:1018E00040E012B0704700BFEC4600B52DE9005053
:1018F0002DE9FF1F4FF000032DE90C0001A9FFF7B0
:1019000019FCDDF840E012B0704700BFEC4600B5AE
:101910002DE900502DE9FF1F4FF000032DE90C00C9
:1019200001A9FFF729FCDDF840E012B0704700BFC5
:10193000EC4600B52DE900502DE9FF1F4FF00003E4
:101940002DE90C0001ABFFF7EBFBDDF840E012B036
:10195000704700BFEC4600B52DE900502DE9FF1F90
:101960004FF000032DE90C0001AAFFF75DFCDDF844
:1019700040E012B0704700BF027A7AB9437AA3B14F
:101980004268013B10B4437213680321141D0172B5
:101990001A024460026010BC180E70470368013AD6
:1019A00002721A020260180E7047B020704700BF22
:1019B00000B585B003AA0023009219460C22FFF758
:1019C000EBFB039805B05DF804FB00BFF0E700BF38
:1019D0002DE9F043054685B00E464FF0000830462D
:1019E000FFF7CAFFB028044600F0B280070620D5F2
:1019F00000F0F003802B4DD0902B36D0A02B60D080
:101A0000B02B74D0C02B00F08B8000F0F803D02BEB
:101A10000BD100F00702013242F40022052301211C
:101A20002846FFF797FD0028D9D0092005B0BDE86A
:101A3000F0830DF10C09002319468700CDF80090C2
:101A40000D222846FFF7A8FBFFB2039BCDF80090BC
:101A5000043760064CBFDF1BFF18002319460D2218
:101A600028460397FFF7BCFBB9E700F00D030D2BE9
:101A7000DBD003AF002300F00F0219460097284681
:101A8000FFF78AFB0023009719460D222846FFF72F
:101A9000A7FBA4E73046FFF76FFF24022043B0F511
:101AA000004FC2D004010023A2B219462846FFF716
:101AB00051FD0028B9D114F4004F18BF4FF00108B0
:101AC0008DE7C24302F007034FF47F621A4101071A
:101AD00002F47F624FF0000348BF42F4804219468F
:101AE0002846FFF737FD00283FF479AF9DE7B1287E
:101AF00033D0B22800F08B80B32839D000F0FC033B
:101B0000B42B92D000F007020132012342F40022EC
:101B100019462846FFF71EFD00283FF460AF84E712
:101B2000C62842D0C7284CD000F0F803C02B5BD0A9
:101B3000C82860D0C9287FF478AF3046FFF71CFF73
:101B4000020300F00F0002F470220130024365E747
:101B5000B8F1000F18D0002068E73046FFF70CFFFF
:101B6000024600283FF461AF10F0F003D0D05CE7EC
:101B70003046FFF701FF010300F00F0001F4702170
:101B8000421C01230A43C3E703AC43460E224146ED
:101B900000942846FFF700FB0094284643460F2296
:101BA0004146FFF71DFB404640E73046FFF7E4FEA5
:101BB000010300F00F0001F47021421C03230A43CB
:101BC000A6E73046FFF7D8FE024600283FF42DAFC7
:101BD00010F0F0037FF429AF04212846FFF7BAFC88
:101BE00000283FF4FCAE20E700F00F02013203238F
:101BF00042F420228CE73046FFF7BEFE00F0F002F0
:101C000000F00F031032013343EA023206E70023EB
:101C10000DF10C090D221946CDF800902846FFF76A
:101C2000BBFA3046FFF7A8FE02064FF002070CD5BC
:101C3000039B00F07F00B840034430460393FFF756
:101C40009BFE030607F10707F2D4039BCDF8009033
:101C500000F07F0403F50172BC40002314441946D0
:101C60000D2228460394FFF7BBFAB8E610B5C26C04
:101C700084B0536803248DF80C401B0202F1080461
:101C80000846D279019301A902948DF80D20FFF73F
:101C90009FFE04B010BD00BF08B5FFF797FE806C33
:101CA00008BD00BF08B5FFF791FEC06CC3790233D1
:101CB00000EB830008BD00BF08B5062000F032FA33
:101CC000012000F0DBFC00BF10B5054C34B1134619
:101CD0000A460146022000F05FFC10BD204610BD00
:101CE0009925000870B50D4E0D4D761BB61006D027
:101CF0000024013455F8043B9847A642F9D1094E17
:101D0000094D761B01F062FAB61006D000240134AA
:101D100055F8043B9847A642F9D170BD88340008B5
:101D2000883400089034000888340008024B0146CB
:101D3000186800F0FBB800BF18000020024B0146F5
:101D4000186800F09DB800BF18000020844641EAE2
:101D5000000313F003036DD1403A41D351F8043B23
:101D600040F8043B51F8043B40F8043B51F8043B75
:101D700040F8043B51F8043B40F8043B51F8043B65
:101D800040F8043B51F8043B40F8043B51F8043B55
:101D900040F8043B51F8043B40F8043B51F8043B45
:101DA00040F8043B51F8043B40F8043B51F8043B35
:101DB00040F8043B51F8043B40F8043B51F8043B25
:101DC00040F8043B51F8043B40F8043B51F8043B15
:101DD00040F8043B51F8043B40F8043B403ABDD284
:101DE000303211D351F8043B40F8043B51F8043B26
:101DF00040F8043B51F8043B40F8043B51F8043BE5
:101E000040F8043B103AEDD20C3205D351F8043BB4
:101E100040F8043B043AF9D2043208D0D2071CBF80
:101E200011F8013B00F8013B01D30B8803806046A9
:101E3000704700BF082A13D38B078DD010F003031F
:101E40008AD0C3F10403D21ADB071CBF11F8013B8F
:101E500000F8013B80D331F8023B20F8023B7BE7DE
:101E6000043AD9D3013A11F8013B00F8013BF9D209
:101E70000B7803704B7843708B78837060467047A3
:101E800000293CD038B551F8043C0C1F002BB8BFDA
:101E9000E418054600F0D0FB234B1A682AB1A24291
:101EA0000DD921686018824223D0626028461C60E8
:101EB000BDE8384000F0C2BBA34203D81A465368BD
:101EC000002BF9D111685018A04219D024D82168EC
:101ED0006018834206D0636054602846BDE83840ED
:101EE00000F0ACBBD3E9000301446360216054609F
:101EF000F3E7D2E90002014462602160D6E770474F
:101F000020680144501883421160E6D1D3E90003F0
:101F1000014453601160E0E70C232B602846BDE8C4
:101F2000384000F08BBB00BFDC0C0020F8B5CD1CA6
:101F300025F0030508350C2D38BF0C25002D06466D
:101F400033DBA94231D82A4F00F076FB3A6852B110
:101F500013685B1B04D43FE023685B1B29D5224632
:101F60005468002CF8D1796800293BD029463046C6
:101F700000F040F8431C28D0C41C24F00304A04205
:101F800005D0211A304600F035F801301DD025600B
:101F9000304600F053FB04F10B0020F00700231D36
:101FA000C21A01D01B1AA350F8BD0C2232600020C7
:101FB000F8BD0B2B05D8A242636811D05360E7E748
:101FC000144623601C442560E2E70C23304633604E
:101FD00000F034FB0020F8BD0B2BF1D853681446F9
:101FE0003B60D5E7304600F005F87860BEE700BFFB
:101FF000DC0C002038B5074C00230546084623605A
:1020000000F02EFB431C00D038BD2368002BFBD012
:102010002B6038BD8C0E002010B580210446FFF7E0
:1020200085FF606440B1031F00227C3043F8042F19
:102030008342FBD1002010BD4FF0FF3010BD00BF28
:10204000436C0BB100207047E6E700BF1F2970B555
:10205000054608D8436C16460C464BB153F824008D
:1020600043F8246070BD162202604FF0FF3070BD4F
:10207000FFF7D2FF08B96B6CF0E74FF0FF3070BD8F
:102080001F2938B521D8426C05460C466AB152F872
:10209000213053B1012B16D0591C10D000252046F9
:1020A00042F824509847284638BD284600F070F87A
:1020B000224601462846BDE8384000F055B81623B0
:1020C0000360012038BD002038BD162303604FF0A7
:1020D000FF3038BD1F2921D838B5436C05460C4662
:1020E00083B153F8242003EB84034AB1511C10D070
:1020F000012A0CD0002520461D609047284638BD97
:10210000012038BDFFF788FF28B96B6CE9E7032091
:1021100038BD022038BD4FF0FF3038BD4FF0FF30E2
:10212000704700BF024B01461868FFF7A9BF00BF08
:1021300018000020024B0A4601461868FFF786BFC8
:1021400018000020034B1868436C0BB10020704747
:1021500062E700BF18000020024B01461868FFF735
:10216000B9BF00BF1800002038B50B46074C054624
:10217000114618460023236000F06AFA431C00D081
:1021800038BD2368002BFBD02B6038BD8C0E00209F
:1021900000F056BA41EA00039B0708D0034611F845
:1021A000012B184603F8012B002AF8D170470B6861
:1021B000A3F1013222EA030212F0803FEED110B403
:1021C0000C1D40F8043B214654F8043BA3F10132B6
:1021D00022EA030212F0803FF3D0034611F8012BEC
:1021E000184603F8012B002AF8D110BC704700BF35
:1021F00000000000000000000000000000000000DF
:10220000A2EB0300704700BF02780B78012A28BFB9
:102210009A42F5D16DE9044540EA0104CDE902672F
:102220006FF0000C4FEA447212B380EA010414F01C
:10223000070F6AD100F0070420F0070004F003053F
:1022400021F007014FEAC505F0E8042314F0040F5C
:10225000F1E804670CFA05F462EA040266EA04068F
:102260000AD063EA0403624667EA0407664603E0AD
:10227000F0E80423F1E8046782FA4CF582EA0604E8
:10228000A4FA8CF46CBB83FA4CF583EA0705A5FA33
:102290008CF595B950E9022351E9026782FA4CF5B1
:1022A00082EA0604A4FA8CF483FA4CF583EA070563
:1022B000A5FA8CF52543DBD09CB92DBAB5FA85F487
:1022C00024F0070427FA04F1DDE9026723FA04F396
:1022D00003F0FF0001F0FF01FDE80445A0EB010061
:1022E000704724BAB4FA84F424F0070426FA04F1FF
:1022F000DDE9026722FA04F202F0FF0001F0FF01BB
:10230000FDE80445A0EB0100704714F0030F3CD139
:1023100010F0030428D150F8082B51F8083B82FA3A
:102320004CF582EA0305A5FA8CF55DB950F8042C4A
:1023300051F8043C82FA4CF582EA0305A5FA8CF5C3
:10234000002DE8D02DBAB5FA85F424F0070423FA5D
:1023500004F122FA04F202F0FF0001F0FF01FDE8AF
:102360000445A0EB010070474FEAC40420F00300CD
:1023700050F8082B21F0030151F8083B0CFA04F443
:1023800062EA040263EA0403C9E710F003041AD006
:10239000A1EB040120F00300E40750F8042B06D061
:1023A0000FD28B785FFAA2F4E41A06D12BB1CB7866
:1023B0005FFAB2F4E41A00D11BB920465DF8104B65
:1023C000704701F1040150F8042BCC0721F0030100
:1023D00051F8043B48D824D222F07F4482FA4CF5CD
:1023E00094EA1325A5FA8CF50AD165B951F8043B96
:1023F00084EA0204B4EB036F0ED150F8042BEBE730
:102400004FEA132355E035F07F454DD10878FDE8BC
:102410000445C0F1000070474FEA126203F0FF0369
:1024200047E002EA1C4482FA4CF594EA1345A5FA07
:102430008CF50AD165B951F8043B84EA0204B4EB87
:10244000034F0CD150F8042BEBE74FEA134330E075
:1024500015EA1C4528D10B884FEA124229E04FEAC1
:10246000124203EA1C4324E002F0FF0482FA4CF516
:1024700094EA1365A5FA8CF50AD165B951F8043BC5
:1024800084EA0204B4EB032F09D150F8042BEBE7E4
:102490004FEA13630DE015F0FF0F05D10B684FEA0B
:1024A000122223F07F4304E04FF00000FDE80445D2
:1024B000704712BA1BBA82FA4CF482EA0304A4FAF7
:1024C0008CF5B5FA85F402FA04F203FA04F34FEA44
:1024D0001260FDE80445A0EB1360704780EA01023A
:1024E000844612F0030F4FD111F0030F32D14DF893
:1024F000044D11F0040F51F8043B0BD0A3F101324D
:102500009A4312F0803F04BF4CF8043B51F8043B5F
:1025100016D100BF51F8044BA3F101329A4312F0D7
:10252000803FA4F101320BD14CF8043BA24312F0DE
:10253000803F04BF51F8043B4CF8044BEAD02346DB
:102540000CF8013B13F0FF0F4FEA3323F8D15DF88D
:10255000044B704711F0010F06D011F8012B0CF855
:10256000012B002A08BF704711F0020FBFD031F8CD
:10257000022B12F0FF0F16BF2CF8022B8CF8002054
:1025800012F47F4FB3D1704711F8012B0CF8012BD7
:10259000002AF9D1704700BF2DE9F843224C256885
:1025A0000DB36C681F2C3BDC984691460F460646DF
:1025B00088B1D5F8880028B3D0F8003140F82490CD
:1025C0000122A24000EB84011343022EC0F8003127
:1025D000C1F8808010D0A31C01346C6045F82370D2
:1025E0000020BDE8F883114E114D2560002ED8D093
:1025F0003468C5F88840D4E7D0F804311A43C0F8ED
:102600000421E8E70B4B5BB14FF48470FFF78EFBBE
:1026100030B100236C68C0E94033C5F88800CDE7CD
:102620004FF0FF30DDE700BF780E0020E4310008F6
:10263000EC0D00202D1D0008704700BF704700BF43
:10264000024B58221A604FF0FF3070478C0E00206A
:10265000024B58221A604FF0FF3070478C0E00205A
:10266000044A05491368002B08BF0B461844106044
:10267000184670477C0E0020900E0020FEE700BF39
:10268000F0B51548154D00F5876683B0FDF7D0FD10
:10269000A6F23440FDF7D8FEA6F11800FEF772FA54
:1026A000A6F11804A6F234472046FEF79FF800284A
:1026B000FAD000230193019BAB4205DC019B01335F
:1026C0000193019BAB42F9DD38463146FDF754FEDC
:1026D0002046FEF785F9E7E7A00000203F54890077
:1026E0002DE9F0411B4C1C4D1C4E84B02046FDF7DB
:1026F0009BFD2A461A49204600F065F804F58468D7
:102700004FF41657174B009306210722CDE90121FC
:102710000123154A154903974046FEF749F82A4612
:102720003146404600F04FF80434114B0093082125
:102730000922CDE9012103970E4A0F4920460023C3
:10274000FEF736F82A463146204604B0BDE8F0418F
:1027500000F039B8A0000020000000208D0C000817
:102760002D020008406402400004024000100140B5
:1027700028600240000C024000480040002103E0B5
:102780000B4B5B58435004310A480B4B42189A429A
:10279000F6D30A4A02E0002342F8043B084B9A426F
:1027A000F9D3FEF779FAFFF79DFAFFF769FF704753
:1027B00094340008000000208400002084000020E1
:1027C000900E0020FEE70B4601461846FFF77CBA44
:1027D0001EB400F09CF81EBCFFF786F80378472B68
:1027E00017D143784E2B14D18378552B11D1C37850
:1027F000432B0ED10379432B0BD143792B2B08D1DB
:1028000083792B2B05D1C07901288CBF00200120B2
:1028100070470020704700002DE9F3411D46037802
:10282000472B0E460246C17913D143784E2B10D167
:102830008378552B0DD1C378432B0AD10379462BCE
:1028400007D143794F2B04D18379522B01D1002931
:1028500031D01046FFF7C2FF80F00100C0B2002364
:102860000024019453BB58BB01290ABF52F8203CF5
:10287000A2F12003783B012908BF52F8202C1C68E4
:1028800018BF58320192236820469B689847C8B108
:10289000019B1B6801930227336801AAD3F81080BB
:1028A000214601233046C04770B1019B2B6038465A
:1028B00002B0BDE8F08101230846D1E7034CE2E70E
:1028C000034CE0E70127E7E70746F0E7343200086A
:1028D0003C32000810B5044600F032F802462046AB
:1028E000A4F12001FFF77AFF60B154F8043C0133F2
:1028F000012B44F8043C03D1936844F8083C9160F0
:10290000012010BD9368002BF9D000F0A9FA10B592
:1029100000F016F8826801460AB900F0A1FA02F147
:1029200020042046FFF75AFF40B1D369013BD36131
:1029300013B9906988609361204610BD8860FBE7F9
:1029400000487047800E002030B500231A4610F86A
:10295000015B05F07F04944023432C0602F107023B
:10296000F5D40B6030BD30B500231A4610F8014B8A
:1029700004F07F0595402B43250602F10702F5D4AC
:102980001F2A06D8640642BF4FF0FF3404FA02F251
:1029900013430B6030BD50282DE9F34106468846AD
:1029A00015461F4608D1D01C20F0030050F8044BF8
:1029B0003C6002B0BDE8F08100F00F030C2B2ED874
:1029C000DFE803F025071D25292D2D2D2D182125A4
:1029D000290001A92846FFF7B7FF019C002CE7D08A
:1029E00006F07003102B08BFA8464444330648BFC6
:1029F0002468DDE701A92846FFF7B5FFEDE7284683
:102A000030F8024BEAE7284630F9024BE6E7284661
:102A100050F8044BE2E7284650F8084BDEE7FFF792
:102A20004BF908B50346FF2B084610D003F070029F
:102A3000302A12D007D8202A0BD002D813F0600F0A
:102A400005D0FFF739F9402A0BD0502AF9D10020E0
:102A500008BDBDE8084000F0B6BBBDE8084000F086
:102A6000AFBBBDE80840FFF717B970B50C4601468B
:102A7000204615461E46FFF7D4FF334601462A4638
:102A80002046BDE87040FFF786BF73B50C4615467B
:102A9000064628B3FFF700F9034620462B6010F8DE
:102AA000011BFF291ED002462B1D3046FFF7DDFF1C
:102AB00010F8013B2B75FF2B16D010232B7501A9A5
:102AC000FFF742FF019B0344EB6010F8013B6B757D
:102AD00001A9FFF739FF019B03442B6102B070BDD0
:102AE0000346DAE76B60E3E70023EDE71FB503ABCE
:102AF000009300230A461946FEF74EFB039805B0E3
:102B00005DF804FB2DE9F04F91B00023059300F030
:102B10000303012B06460C4617460ED0022B03D0AA
:102B2000002B3BD101073BD539462046FFF79EF8E5
:102B300090B3092011B0BDE8F08F020706D40D6AEA
:102B400038460D21FFF7D2FF85422BD0022000230B
:102B500006F008060DF1280A0643CDF800A00C2265
:102B6000194638460A94FEF73BFB062E1CD1D4F8D2
:102B70003080D4E90A59B8F1000F0CBF4FF0010BB7
:102B80004FF0030B16F0080600F00C81BBF1010FAB
:102B900040F0048100F064F90820CBE7FFF78CF8DF
:102BA0000120D4E70620D2E73846FFF77BF88146BC
:102BB0000028B9D0524601463846FFF766FF39462D
:102BC00005469DF83C00FFF72CFF0F210C9038467E
:102BD000FFF78CFF20F0010808F1FF380E9BAB4295
:102BE00040F2C4802A469DF83D1006AB0020FFF756
:102BF0003CFF9DF83D10024607AB0020FFF735FF74
:102C000008AB02469DF83D100020FFF72EFF09A9F2
:102C1000FFF79AFE0A9B069A13444345054601D9DD
:102C20000E9DDBE7079A13444345D7D9DDF8208092
:102C3000B8F1000F01D00B9B9844099D15B10E9877
:102C4000013D0544B8F1000F3FF46EAF002D00F0D8
:102C5000F78016F00803029334D0472323704E23E5
:102C600063705523A3704323E370462323714F23DE
:102C700063715223A3710023E3714FF0000B07A986
:102C80002846FFF770FE08A90390FFF76CFE07992E
:102C9000002968D03ADD9DF83C00FF2832D000F0D2
:102CA0000703042B3FF67AAF01A252F823F000BFCE
:102CB000092D00089D2B0008D72C0008092D0008BD
:102CC000012D0008E379012B0CBF54F8203C04F1DE
:102CD00058030593D1E702250D9A09AB05FB112294
:102CE0000C99FFF758FE099931B17CB305AB00226E
:102CF0002046FFF791FD48B3079D4FF0030B39E0E5
:102D00000825E9E70025E7E70425E5E7C1F17F515C
:102D100001F57F110D9B01F57F513F3103EB8105DB
:102D2000DCB1029ACAB9059B0993043D55F8041F0A
:102D300041B109AB002229442046FFF76DFD002870
:102D4000F4D0012181F001010029D5D1089D002D89
:102D500072D0039B2B441D4691E753F82110B1FA22
:102D600081F14909F0E74FF0010BEFE70025A84694
:102D70004FF0010BF3077FF505AFBBF1020F3FF4F6
:102D8000D3AE0D213846059EFFF7B0FEC4E90A59BF
:102D9000C4E90806C4F830800620CBE6002D22DA0C
:102DA00000F070F8BBF1010F02D1204600F09DF950
:102DB000002D18DA524649463846FFF766FE9DF860
:102DC0003C003946FFF72DFE0D9A0C90EB4302EBC9
:102DD000830353F826200AB10136FAE70422C4E936
:102DE0000A60C4E90C23002309AE1A46194600966E
:102DF00038460994FEF7F4F900231946012200969B
:102E000038460995FEF7ECF90F213846FFF76EFEBC
:102E100000F0010040EA08000023099000960F220C
:102E200019463846FEF7DCF9BBF1020F02D1204605
:102E3000FFF750FD07207DE6BBF1000F3FF474AEB5
:102E40004FF0020B96E700BF08B58047FEF734FF4E
:102E5000024B1868BFF35B8F704700BF80000020F3
:102E600008B5FFF7F5FFFFF7EFFF08B58047FFF75D
:102E7000F7FF0000024B1868BFF35B8F704700BF7D
:102E80007C00002008B5FFF7F5FFFFF7EEFF00001C
:102E900010B5034B0360044600F0B4F8204610BDA3
:102EA000C432000810B50446FFF7F2FF20460C219B
:102EB00000F0FCF8204610BD2DE9F041DDF8188047
:102EC000904506460F4615461C460BD0B068036871
:102ED000CDF818801E6A2A4623463946B446BDE816
:102EE000F0416047194600F057F80028EED0062060
:102EF000BDE8F0812DE9F14F0D461946DDE90A4B99
:102F0000DDE90CA681461746984600F045F890B1D9
:102F1000002D3460377109DB2C44A2450CBF062418
:102F20000124B471002001B0BDE8F08F0235F9D161
:102F30000123B371F6E7544506D15946484600F0DF
:102F40002BF808B17771EDE7D9F808000368CDE9EF
:102F50000CA6CDE90A4BDC693A4643462946A4460D
:102F600001B0BDE8F04F60472DE9F04107460C463F
:102F700015461E4600F079F848B9B86803689F699D
:102F80002A4633462146BC46BDE8F0416047BDE8CD
:102F9000F081704700207047814208B50ED040682C
:102FA00003782A2B0CD049680B782A2B08BF0131F3
:102FB000FFF72AF9B0FA80F0400908BD0120FCE7CC
:102FC0000020FAE77FB500241023CDE9023403681E
:102FD00000949E698DF8044015466B461268B04710
:102FE0009DF8043003F00603062B03BF009B2B6003
:102FF0000120204604B070BD0098904214BF01200B
:103000000620704710B5034B03600446FFF7C1FF6D
:10301000204610BD3833000810B50446FFF7F2FF14
:103020002046082100F042F8204610BD2DE9F0416D
:103030001F46DDE90834DDF8188098450646154638
:1030400007D10799FFF7A8FF18B165710020BDE807
:10305000F08139463046FFF79FFF0028F6D0012364
:10306000C4F800802571A371F0E738B515461C46F9
:10307000FFF792FF20B10823E36006232560237148
:1030800038BD2DE9F04105460C4616461F46FFF7B0
:1030900083FF48B9032F07D82368324629462046C4
:1030A0005B69BDE8F0411847BDE8F08100F086B8E3
:1030B0000378472B17D143784E2B14D18378552BA7
:1030C00011D1C378432B0ED10379432B0BD1437914
:1030D0002B2B08D183792B2B05D1C07901288CBFEC
:1030E0000020012070470020704710B5044648B109
:1030F00000F03BF82046FFF7DBFF18B154F8140C42
:10310000FFF7A2FEFFF7ACFE38B50246FFF7D0FF8F
:10311000044640B152F8184C0025104600F025F83E
:103120001DB1FFF7AFFE0125F7E72046FFF79DFE33
:103130000378472B17D143784E2B14D18378552B26
:1031400011D1C378432B0ED10379432B0BD1437993
:103150002B2B08D183792B2B05D1C07901288CBF6B
:103160000020012070470020704738B50446FFF763
:10317000E7FB056802462046A4F12001FFF7D8FFCF
:1031800028B90DB1FFF76CFE1160284638BD54F820
:103190000C3C002BB4BFC3F10103013344F80C3CD9
:1031A00053688D4203F1FF33536020461CBF44F83F
:1031B000105C1160656AFDF7E7FFE6E7FEF7BEBD4C
:1031C00008B5FEF779FD08B5FFF7FAFFF8B500BFBF
:1031D000F8BC08BC9E467047F8B500BFF8BC08BCF8
:0431E0009E46704750
:1031E400E40C002041542B434D47533D2200000082
:1031F400220D000041542B434D47463D310D000044
:1032040041542B434D47463D310D0A0041542B4355
:103214004D4744413D310D0A0000000041542B4309
:103224004E4D493D322C322C302C302C300D0A00BE
:103234003833000844320008383300086432000888
:103244004E31305F5F637878616269763131355F22
:103254005F666F726365645F756E77696E6445005F
:103264004E31305F5F637878616269763131395FFE
:103274005F666F726569676E5F65786365707469B0
:103284006F6E4500C4320008943200080033000811
:103294004E31305F5F637878616269763132305FD6
:1032A4005F73695F636C6173735F747970655F6981
:1032B4006E666F45000000000000000088320008C0
:1032C400912E0008A52E0008952F0008952F0008C0
:1032D40083300008C52F0008692F0008F52E000868
:1032E400B92E000838330008F032000853743974DA
:1032F4007970655F696E666F00000000C432000873
:103304000C330008E83200084E31305F5F63787890
:10331400616269763131375F5F636C6173735F74C7
:103324007970655F696E666F4500000000000000FB
:10333400003300080530000819300008952F0008F4
:10334400952F000883300008C52F00086B30000853
:083354002D300008F92F0008DC
:10335C00A9F7FF7FB0A90400FFFF010C1A040000BD
:10336C00260430003604000096B20181B0B0AF01E3
:10337C000000000008B10181B0B000840000000022
:0C338C0008B10181B0B000840000000016
:1033980090CEFF7F0100000010D4FF7FB8FFFF7FB1
:1033A80044D4FF7F0100000074D6FF7FC0FFFF7F79
:1033B800CCD7FF7FB0AF1280C8D8FF7F01000000D4
:1033C800E4DAFF7FB0A9028078DBFF7FB0B0A88085
:1033D800C8DBFF7F01000000D4DBFF7FB0B0AA800C
:1033E80008DCFF7FAE71B280CCDCFF7F01000000FB
:1033F800C8DCFF7FAB3F388020DDFF7F0100000085
:103408002CDDFF7FB0B0AA8068DDFF7F01000000DF
:1034180010DEFF7FAB0EB28080DEFF7FB0AF08808A
:1034280020E1FF7F0100000024E1FF7FAD3F028023
:1034380094E3FF7F0100000070E5FF7F00840480B3
:1034480084E5FF7F0100000080E5FF7FB0AD0480C8
:1034580014E8FF7FB0A8038038E8FF7F1CFFFF7FD8
:103468003CE8FF7F20FFFF7F48E8FF7F0100000066
:1034780008F2FF7FB0AB028060F2FF7F010000001E
:0834880009020008E12600081A
:04349000E10100084E
:10349400000000000000000000000000010203041E
:1034A40006070809007A030A1C0000200000000037
:1034B4000000000000000000000000000000000008
:1034C40000000000000000000000000000000000F8
:1034D40000000000000000000000000000000000E8
:1034E40000000000000000000000000000000000D8
:1034F40000000000000000000000000000000000C8
:10350400000000000000000000000000612E000820
:04351400B91C0008D6
:040000050800277D4B
:00000001FF
